:020000021000EC
:108000002032022045F1010075EB010029F1010049
:1080100029F1010029F1010029F1010029F10100F4
:1080200000000000000000000000000095F30100C7
:1080300029F101000000000005F3010029F1010011
:10804000C5F50100C5F50100C5F50100C5F5010044
:10805000C5F50100C5F50100C5F50100C5F5010034
:10806000C5F50100C5F50100C5F50100C5F5010024
:10807000C5F50100C5F50100C5F50100C5F5010014
:10808000C5F50100C5F50100C5F50100C5F5010004
:10809000C5F50100C5F50100C5F50100C5F50100F4
:1080A000C5F50100C5F50100C5F50100C5F50100E4
:1080B000C5F50100C5F50100C5F50100C5F50100D4
:1080C000C5F50100C5F50100C5F50100C5F50100C4
:1080D000C5F50100C5F50100C5F50100C5F50100B4
:1080E000C5F50100C5F50100C5F50100C5F50100A4
:1080F000C5F50100C5F50100C5F50100C5F5010094
:10810000C5F50100C5F50100C5F50100C5F5010083
:10811000C5F50100C5F50100C5F50100C5F5010073
:10812000C5F50100C5F50100C5F50100C5F5010063
:10813000C5F50100C5F50100C5F50100C5F5010053
:04814000C5F5010080
:04814400FFFFFFFF3B
:1081480081F0004102E000BF83F0004330B54FEA00
:1081580041044FEA430594EA050F08BF90EA020F6D
:108168001FBF54EA000C55EA020C7FEA645C7FEA00
:10817800655C00F0E2804FEA5454D4EB5555B8BF23
:108188006D420CDD2C4480EA020281EA030382EA94
:10819800000083EA010180EA020281EA0303362D26
:1081A80088BF30BD11F0004F4FEA01314FF4801CF9
:1081B8004CEA113102D0404261EB410113F0004F0B
:1081C8004FEA03334CEA133302D0524263EB4303C2
:1081D80094EA050F00F0A780A4F10104D5F1200E60
:1081E8000DDB02FA0EFC22FA05F2801841F10001BB
:1081F80003FA0EF2801843FA05F359410EE0A5F18F
:1082080020050EF1200E012A03FA0EFC28BF4CF0BF
:10821800020C43FA05F3C01851EBE37101F0004575
:1082280007D54FF0000EDCF1000C7EEB00006EEB82
:108238000101B1F5801F1BD3B1F5001F0CD349080C
:108248005FEA30004FEA3C0C04F101044FEA445263
:1082580012F5800F80F09A80BCF1004F08BF5FEAEA
:10826800500C50F1000041EB045141EA050130BDCA
:108278005FEA4C0C404141EB0101013C28BFB1F5DC
:10828800801FE9D291F0000F04BF01460020B1FA27
:1082980081F308BF2033A3F10B03B3F120020CDAFA
:1082A8000C3208DD02F1140CC2F10C0201FA0CF0D8
:1082B80021FA02F10CE002F11402D8BFC2F1200C3D
:1082C80001FA02F120FA0CFCDCBF41EA0C019040F3
:1082D800E41AA2BF01EB0451294330BD6FEA04043C
:1082E8001F3C1CDA0C340EDC04F11404C4F1200227
:1082F80020FA04F001FA02F340EA030021FA04F339
:1083080045EA030130BDC4F10C04C4F1200220FA8F
:1083180002F001FA04F340EA0300294630BD21FACD
:1083280004F0294630BD94F0000F83F4801306BF93
:1083380081F480110134013D4EE77FEA645C18BF87
:108348007FEA655C29D094EA050F08BF90EA020F1E
:1083580005D054EA000C04BF1946104630BD91EA16
:10836800030F1EBF0021002030BD5FEA545C05D119
:108378004000494128BF41F0004130BD14F5800458
:108388003CBF01F5801130BD01F0004545F0FE41CC
:1083980041F470014FF0000030BD7FEA645C1ABF01
:1083A800194610467FEA655C1CBF0B46024650EA38
:1083B800013406BF52EA033591EA030F41F4002164
:1083C80030BD00BF90F0000F04BF0021704730B5EA
:1083D8004FF4806404F132044FF000054FF00001BF
:1083E80050E700BF90F0000F04BF0021704730B580
:1083F8004FF4806404F1320410F0004548BF404255
:108408004FF000013EE700BF42004FEAE2014FEAA9
:1084180031014FEA02701FBF12F07F4393F07F4F84
:1084280081F06051704732F07F4208BF704793F087
:108438007F4F04BF41F40021704730B54FF460749A
:1084480001F0004521F000411CE700BF50EA01029D
:1084580008BF704730B54FF000050AE050EA010246
:1084680008BF704730B511F0004502D5404261EBB6
:1084780041014FF4806404F132045FEA915C3FF4F7
:10848800D8AE4FF003025FEADC0C18BF03325FEA94
:10849800DC0C18BF033202EBDC02C2F1200300FA45
:1084A80003FC20FA02F001FA03FE40EA0E0021FA6A
:1084B80002F11444BDE600BF70B54FF0FF0C4CF458
:1084C800E06C1CEA11541DBF1CEA135594EA0C0F0A
:1084D80095EA0C0F00F0DEF82C4481EA030621EA45
:1084E8004C5123EA4C5350EA013518BF52EA033580
:1084F80041F4801143F4801338D0A0FB02CE4FF032
:108508000005E1FB02E506F00042E0FB03E54FF061
:108518000006E1FB03569CF0000F18BF4EF0010E59
:10852800A4F1FF04B6F5007F64F5407404D25FEA55
:108538004E0E6D4146EB060642EAC62141EA555108
:108548004FEAC52040EA5E504FEACE2EB4F1FD0C4A
:1085580088BFBCF5E06F1ED8BEF1004F08BF5FEAC8
:10856800500E50F1000041EB045170BD06F000467A
:1085780046EA010140EA020081EA0301B4EB5C0427
:10858800C2BFD4EB0C0541EA045170BD41F480111F
:108598004FF0000E013C00F3AB8014F1360FDEBF44
:1085A800002001F0004170BDC4F10004203C35DA20
:1085B8000C341BDC04F11404C4F1200500FA05F3A3
:1085C80020FA04F001FA05F240EA020001F0004244
:1085D80021F0004110EBD37021FA04F642EB0601BA
:1085E8005EEA430E08BF20EAD37070BDC4F10C04E4
:1085F800C4F1200500FA04F320FA05F001FA04F2A8
:1086080040EA020001F0004110EBD37041F1000193
:108618005EEA430E08BF20EAD37070BDC4F120059E
:1086280000FA05F24EEA020E20FA04F301FA05F206
:1086380043EA020321FA04F001F0004121FA04F2AE
:1086480020EA020000EBD3705EEA430E08BF20EA7E
:10865800D37070BD94F0000F0FD101F000464000B8
:1086680041EB010111F4801F08BF013CF7D041EA3A
:10867800060195F0000F18BF704703F0004652003E
:1086880043EB030313F4801F08BF013DF7D043EA0F
:108698000603704794EA0C0F0CEA135518BF95EAC5
:1086A8000C0F0CD050EA410618BF52EA4306D1D14C
:1086B80081EA030101F000414FF0000070BD50EA6B
:1086C800410606BF1046194652EA430619D094EAF5
:1086D8000C0F02D150EA013613D195EA0C0F05D1DF
:1086E80052EA03361CBF104619460AD181EA030133
:1086F80001F0004141F0FE4141F470014FF00000EB
:1087080070BD41F0FE4141F4780170BD70B54FF085
:10871800FF0C4CF4E06C1CEA11541DBF1CEA135505
:1087280094EA0C0F95EA0C0F00F0A7F8A4EB0504E7
:1087380081EA030E52EA03354FEA013100F08880DE
:108748004FEA03334FF0805545EA131343EA1263A7
:108758004FEA022245EA111545EA10654FEA00265C
:108768000EF000419D4208BF964244F1FD0404F515
:10877800407402D25B084FEA3202B61A65EB030571
:108788005B084FEA32024FF480104FF4002CB6EB2E
:10879800020E75EB030E22BFB61A754640EA0C00AE
:1087A8005B084FEA3202B6EB020E75EB030E22BFEE
:1087B800B61A754640EA5C005B084FEA3202B6EB2F
:1087C800020E75EB030E22BFB61A754640EA9C00EE
:1087D8005B084FEA3202B6EB020E75EB030E22BFBE
:1087E800B61A754640EADC0055EA060E18D04FEA7C
:1087F800051545EA16754FEA06164FEAC30343EA1C
:1088080052734FEAC2025FEA1C1CC0D111F4801FE8
:108818000BD141EA00014FF000004FF0004CB6E7E1
:1088280011F4801F04BF01430020B4F1FD0C88BF80
:10883800BCF5E06F3FF6AFAEB5EB030C04BFB6EB8B
:10884800020C5FEA500C50F1000041EB045170BD7E
:108858000EF0004E4EEA113114EB5C04C2BFD4EBAB
:108868000C0541EA045170BD41F480114FF0000E2F
:10887800013C90E645EA060E8DE60CEA135594EAAB
:108888000C0F08BF95EA0C0F3FF43BAF94EA0C0FAE
:108898000AD150EA01347FF434AF95EA0C0F7FF423
:1088A80025AF104619462CE795EA0C0F06D152EA77
:1088B80003353FF4FDAE1046194622E750EA41065B
:1088C80018BF52EA43067FF4C5AE50EA41047FF46C
:1088D8000DAF52EA43057FF4EBAE12E74FEA4102CF
:1088E800B2F1E04324BFB3F5001CDCF1FE5C0DD906
:1088F80001F0004C4FEAC0024CEA5070B2F1004F50
:1089080040EB830008BF20F00100704711F0804F52
:1089180021D113F13872BCBF01F00040704741F417
:1089280080114FEA5252C2F11802C2F1200C10FA1B
:108938000CF320FA02F018BF40F001004FEAC123FF
:108948004FEAD32303FA0CFC40EA0C0023FA02F3A3
:108958004FEA4303CCE77FEA625307D150EA013379
:108968001EBF4FF0FE4040F44000704701F0004049
:1089780040F0FE4040F40000704700BF7BB972B978
:108988000029BEBF00204FF0004106E008BF0028C4
:108998001CBF6FF000414FF0FF3000F057B8ADF149
:1089A800080C6DE904CE002909DB002B1ADB00F066
:1089B8004FF8DDF804E0DDE9022304B070474042D7
:1089C80061EB4101002B1BDB00F042F8DDF804E00D
:1089D800DDE9022304B0404261EB4101524263EBFE
:1089E80043037047524263EB430300F031F8DDF86C
:1089F80004E0DDE9022304B0404261EB4101704725
:108A0800524263EB430300F023F8DDF804E0DDE9AC
:108A1800022304B0524263EB4303704753B94AB987
:108A2800002908BF00281CBF4FF0FF314FF0FF306E
:108A380000F00CB8ADF1080C6DE904CE00F008F8B0
:108A4800DDF804E0DDE9022304B07047704700BF99
:108A58002DE9F04786468C460846089E154674461A
:108A68001946002B40F0C1808542B2FA82F245D9FE
:108A78004AB1C2F1200300FA02FC954094402EFA54
:108A880003F343EA0C0C4FEA154EA8B2230CBCFBC7
:108A9800FEF80EFB18CC08FB00F943EA0C43994595
:108AA80028D9EB1808F1FF3704D2994502D9A8F163
:108AB80002072B44A3EB0903A4B2B3FBFEFC0EFB95
:108AC8001C330CFB00F044EA0344A04214D92C19CF
:108AD8000CF1FF3304D2A04202D9ACF102032C44BA
:108AE800241A43EA07401EB1D4400023346073605F
:108AF800BDE8F0874746DDE76346F1E792BB431BD5
:108B080001214FEA154EAFB2200CB3FBFEFC0EFB61
:108B18001C330CFB07F840EA0343984561D9EB186E
:108B28000CF1FF3004D2984502D9ACF102002B4475
:108B3800A3EB0803A4B2B3FBFEFC0EFB1C330CFB37
:108B480007F744EA0344A7424DD92C190CF1FF3327
:108B580004D2A74202D9ACF102032C44E41B43EA35
:108B68000040C0E7C2F120039540944020FA03F189
:108B78002EFA03F34FEA154E9040AFB20343B1FB10
:108B8800FEFC0EFB1C10190C0CFB07F841EA004117
:108B9800884522D969180CF1FF3004D2884502D9DA
:108BA800ACF102002944A1EB08019BB2B1FBFEFC29
:108BB8000EFB1C110CFB07F743EA01439F420ED939
:108BC800EB180CF1FF3104D29F4202D9ACF102013B
:108BD8002B44DB1B41EA004193E76046E3E761462B
:108BE800F7E76046A4E76346B8E7834206D916B9B3
:108BF800002108467CE7C6E900E0F9E7B3FA83F705
:108C08008FB9834201D3724508D8BEEB020460EBEA
:108C1800030301209C461EB9002169E73846FAE79C
:108C2800C6E9004CF8E7C7F1200CBB400EFA07F57F
:108C380022FA0CF42EFA0CF1BA401C4320FA0CF379
:108C4800B8404FEA144901431FFA84FEB3FBF9F810
:108C580009FB18300B0C08FB0EFA43EA00439A454F
:108C680040D9E31808F1FF3004D29A4502D9A8F197
:108C780002002344A3EB0A0389B2B3FBF9F809FB0A
:108C8800183308FB0EFE41EA03418E452CD96118C2
:108C980008F1FF3304D28E4502D9A8F1020321441A
:108CA80043EA0040A1EB0E01A0FB02984145CE46E5
:108CB800434602D306D14D4504D20138B9EB020E22
:108CC80068EB0403002EA7D0B5EB0E0261EB03019D
:108CD80001FA0CFC22FA07F3F9404CEA0303C6E94F
:108CE800003199E74046C5E74346D9E710F8012B1C
:108CF80011F8013B012A28BF9A42F7D0D01A7047D1
:108D0800034611F8012B03F8012B002AF9D170470B
:108D1800034613F8012B002AFBD1181A01387047B3
:108D28002DE9F04706460F4690468AB029F0AEFD79
:108D38004FF47A73A0FB034503FB0155E40B012FA5
:108D480044EA45444FEAD53508D108213046CDE9F3
:108D58000045294A20F030FD002013E0D8F80470BF
:108D680026483946FFF7C2FF78B139462448FFF74D
:108D7800BDFF50B130463B460121224A20F01CFD80
:108D88006FF004000AB0BDE8F087204618A3D3E9C5
:108D980000232946FFF7F2FD05460C461046194602
:108DA800194A0023FFF7EAFD80460F461046194688
:108DB8004EF660220023FFF7E1FD82468946104601
:108DC80019464FF47A720023FFF7D8FDCDE904A9BC
:108DD800CDE90601CDE9082308213046CDE902870F
:108DE800CDE90054094A20F0E7FCB5E7AFF300806D
:108DF800005C260500000000096C04001A6C0400E1
:108E08001D6C0400266C040080EE36003D6C0400E6
:108E180001282DE9F041884608D02AF091FB162256
:108E2800274B1A504FF0FF30BDE8F0818A68254B78
:108E38009A42F2D829F02AFD05460F4629F026FD68
:108E4800214CD8F80030D8F80420A3FB043604FBE2
:108E58000266D8F808209B1846EBE276EA0B42EA4D
:108E68004742A2FB0421FF0B9B1AC0F30E0204FB2E
:108E78000711A2FB04244FEAD23242EA444266EBCD
:108E88000101981A61F100010BA3D3E90023FFF750
:108E980075FDEFF31184202383F31288BFF36F8FDE
:108EA8000A4BC3E900019A6084F31188BFF36F8FFE
:108EB8000020B9E7AFF3008000CA9A3B0000000029
:108EC80014000000FFC99A3B00CA9A3BE0DA002070
:108ED8002DE9F047054699460024282386B08846A0
:108EE8009246CDE9024323F05FFE284602A924F00A
:108EF800BCF80746002800F0AF8083793A2B18D1D8
:108F08000423039928460494059323F0A8FE2846D1
:108F180004A924F0AAF818B190F90030A34205DB9F
:108F28006FF01505284606B0BDE8F087284623F0FF
:108F38003BFEBB79112B58D0062B58D00020AB68CC
:108F4800002B4ED19FED487B022295F824308DED01
:108F5800007B02FB03013A23A86904310AF098FB5D
:108F6800044600287BD095F82420296A24F062F86A
:108F7800061E31DBA3682046DB68A36295F82C2027
:108F8800A96A24F057F8061E26DBA06895F82C106D
:108F98000C3021F021FEA06850F80C3F236295F8B0
:108FA800241021F019FE95F82C3007F1180184F8E7
:108FB800243095F8243084F82C303B7EFF2B03D1E5
:108FC800A06922F0ABFB0146204607F1080224F015
:108FD8001CFD70B16FF00406204623F07AFD35467B
:108FE800A0E71A8A5B681044AAE73020AAE73C2069
:108FF800A8E741465246204624F02BFC01460028AB
:10900800E8D1B8F1040F22D199FA89F342462046F3
:1090180004A9049324F00EF80646204623F079FDAF
:109028000246002ED8D12946204623F0F4FE0546F4
:109038000028D1D1204623F0B7FD3A21204624F05C
:1090480047FD204622F01CF80028C5DB6AE7042209
:10905800204623F0CCFEDFE76FF0040562E76FF0EF
:109068000B055FE7AFF30080008000000000000000
:109078002DE9F0412DED028B1F46002386B0CDE986
:10908800043304230D46904606460193002800F059
:10909800D680002900F0D380062104A825F0B4FC6E
:1090A800044670B16A480368590704D02346012171
:1090B800684A25F011FE204606B0BDEC028BBDE8DB
:1090C800F081014604AA304625F079FC044660B1D7
:1090D8005F4803685A0704D023465F4A012125F0F8
:1090E800FBFD04A825F0BAFCE5E76A46012104A8BF
:1090F80025F066FD044630B1554803685B07F0D09B
:109108002346564AEAE7009BCBB1042B20D0052B17
:109118000CBF0923FF232B70032101AB02AA04A86B
:1091280025F07AFD0646A8B1494803685F0704D0D0
:1091380033464B4A012125F0CFFD3446D1E7DFED18
:10914800497A0023C5ED017A2B70C5ED027AC8E78C
:109158000723E0E7019B002BF1D018336B4403F899
:10916800100C02A94046FFF7CBFD0222314602A8A7
:109178001CF0CEFD2B78C2B2092B0AD10F2A43D995
:109188006FF01504324803685D07AAD02346364AB3
:10919800A4E70F2AF4D8072B3ED19FED348A344B2D
:1091A80033F81200002835D0FFF71CF926A3D3E9BD
:1091B8000023FFF781F9FFF791FB042168600DEBAD
:1091C800010302AA04A8019125F026FD064630BB3A
:1091D800019B02A918336B4403F8100C3846FFF7BB
:1091E8008FFD0222314602A81CF092FDC3B20F2B5C
:1091F8001CD917480268520703D001211D4A25F0DF
:109208006BFD6FF015046CE71B4B9FED1C8A33F860
:109218001200C7E71A48D0E76FF07F04B2E70C489E
:109228000368590789D03346164A83E70133DBB20E
:1092380007EE903AF8EEE77A67EE887A85E76FF0FE
:10924800150438E7AFF300807B14AE47E17A244079
:10925800E0CC0020329704005B9704008497040058
:10926800A697040000000000D29704000AD7A33F85
:109278003857040021980400185704000AD72340DF
:109288000AD7A340F69704002DE9FF478046164603
:109298000F46002900F0A280B1FA81F4341B002E99
:1092A80004F10A04C0F2A28030461EF0F1F9044429
:1092B80030461EF0F3F9A4EB060905466946304628
:1092C8001EF014FAA9EB05036A4640467D33394679
:1092D80029F0FCFDA64282460D4600F38380B9F1D1
:1092E8003F0F00F381804FF0FF33A9F12000C9F14F
:1092F800200103FA00F003FA09F223FA01F103FA54
:1093080009F3024328EA03030A4327EA0202134344
:109318000CBF01200020002D00F08A80B5FA85F3EB
:10932800E31A40F2FE7203F23E43934200F389804F
:10933800002B23EAE376D4BF01223246121BA2F2A5
:109348003341A2F23447A2F25344C1F1200C2AFA65
:1093580001F325FA04F4C7F1200E05FA0CFC25FAEE
:1093680001F105FA0EFE43EA0C03A2F2544CA2F2F4
:10937800544223432AFA07F425FA0CFC44EA0E0463
:1093880044EA0C04C7F1200C14F0010F54D0A8B122
:109398004FF0FF3000FA02F200FA07F4144320FA03
:1093A8000CF2B840144303F001022AEA000A25EA45
:1093B80004054AEA020A5AEA050A3DD0013341F196
:1093C8000002C2F3130253EA020138D0184642EAF7
:1093D800065141EC100B04B0BDE8F087B0FA80F4F8
:1093E80020345BE7012096E7002094E7C6F10009E6
:1093F80048461EF053F9241A48461EF04FF9A61B9A
:109408000546694648462E441EF0E2F96A4640463B
:1094180006F17C03394629F059FD82460D4640463F
:1094280039461EF04BF981458CBF0020012072E7B8
:10943800BAFA8AF3203373E7C1F31302C6E7013699
:10944800C4E79FED010BC6E7000000000000F07FB5
:1094580070B50F4B186824F05FFE002816DD4FF436
:109468007A734FF4004503FB00F4002140F2E73023
:109478004FF47A720023E4FB0501FFF7CFFABDE849
:10948800704002460B4603481BF0AEB970BD00BFE2
:10949800E0EE002080C5002010B515200FF0C0FEBA
:1094A800044648B1064803685B0703D022460549CD
:1094B8001EF00FFA204610BDFFF7CAFFFAE700BFFB
:1094C80018CD0020B65904000246044803685B071B
:1094D80002D003491EF0FDB9704700BF18CD002027
:1094E800D659040010B5094829F00DF814200FF0DA
:1094F80097FE044638B1064803685B0703D0224646
:1095080004491EF0E6F9204610BD00BF80C50020C2
:1095180018CD0020B659040010B50020FFF7E2FF6F
:10952800094C024650B1094803685B0702D0084954
:109538001EF0CFF9216807481EF0C7F921680648D0
:10954800BDE810401EF0C1B9E0EE002018CD0020A3
:10955800EF590400020007D2010007D210B51F4BD3
:109568001A78A2B15A7892B1A8B918701C4C5970DF
:10957800206822F009FA28F04DFD70B1002120681A
:1095880024F0C4FDC0B1BDE81040FFF761BF28B9A1
:109598001870597001E00029E8D010BD01221A7036
:1095A8000029F6D05A700E4B186822F000FABDE870
:1095B80010400C4828F0A7BFFFF794FF0246002888
:1095C800EBD0094803685B0702D008491EF081F90F
:1095D80021680748BDE810401EF077B9828E012047
:1095E800E0EE002080C5002018CD0020EF590400CF
:1095F800020007D210B5064C064821681EF065F92E
:10960800206822F0C1F9BDE810400020FFF76ABFCA
:10961800E0EE0020020007D20448036813F0060FAA
:1096280003D00221024A1FF08DBD704718CD0020DB
:10963800105A040010B504464FF0FF324FF0FF33C4
:1096480007481AF0FBFD074B5A78A24203D021467F
:109658001878FFF783FFBDE8104001481AF066BE8E
:10966800D4CE0020828E012010B50446006822F076
:109678008BF9012120461EF046F9022120461EF0F2
:1096880042F9002120461EF03EF900230C482361D0
:1096980025F059FB024660B10A4803685B0702D00F
:1096A80009491EF016F921680848BDE810401EF067
:1096B8000CB9074825F0ECFA2268064B1A6010BD71
:1096C8008597010018CD0020735A0400020007D2C4
:1096D800E5780300E0EE002010B504464FF0FF32B5
:1096E8004FF0FF3307481AF0A9FD074B1A78A2423A
:1096F80003D020465978FFF731FFBDE810400148F4
:109708001AF014BED4CE0020828E012008B50A4B70
:10971800186800F079F9024650B1084803685B07F9
:1097280002D007491EF0D5F8BDE80840FFF762BF30
:10973800BDE80840FFF7D0BFE0EE002018CD0020BC
:10974800955A040008B50A4B186800F0DDF802467F
:1097580050B1084803685B0702D007491EF0B9F802
:10976800BDE80840FFF746BFBDE80840FFF7CEBF99
:10977800E0EE002018CD0020B15A0400084608B5D4
:10978800052945D8DFE801F04803272B3827234B64
:10979800186800F05FF810F13D0F02460AD1204822
:1097A800036813F0060F37D0BDE8084002211D4AB0
:1097B8001FF0C8BC50B11A4803685B0702D01A49A9
:1097C8001EF087F8BDE80840FFF714BF0120BDE888
:1097D8000840FFF781BFBDE80840FFF7B3BF0F4B54
:1097E800186800F0A7F802460028EFD00C48036874
:1097F8005907E7D00D49E3E7084B186800F004F96A
:10980800024648B1064803685B07DBD00849D7E73A
:10981800BDE80840FFF758BE08BD00BFE0EE0020D5
:1098280018CD0020CD5A0400F25A04000B5B040046
:10983800955A040010B5054C054821681EF045F8F6
:109848002068BDE8104022F09FB800BFE0EE00207D
:10985800020007D270B500240646A2B0182221469D
:1098680008A8CDE90044CDE9024429F055FD002EB1
:109878003DD0242221460FA80E9429F04DFD242224
:10988800214619A8189429F047FD1C491C4818AB13
:109898000EAA18F0D7FFA04203DC6FF00D0022B02B
:1098A80070BD012004AA0EA921F060FB012805461D
:1098B80002D06FF03C00F2E70EA96846FFF720FAE5
:1098C8006846FFF725FA08AA0146684622F09BFA7F
:1098D8000028E2D023460322304609A908F030FACE
:1098E80040B1084B099A20461A601D71D7E76FF0FE
:1098F8001500D4E76FF01200D1E700BF385B040011
:10990800655B0400E4EE002010B550B1084C2379E3
:109918002BB1214621F0CBFF30B100232371002069
:1099280010BD6FF01500FBE76FF00D00F8E700BF02
:10993800E4EE002070B500240546A8B02422214694
:109948000BA80A9429F0E8FC1822214604A829F05B
:10995800E3FC002D4CD02146242215A8149429F0AC
:10996800DBFC214624221FA81E9429F0D5FC23499C
:1099780023481EAB14AA18F065FF041E35DD02202B
:109988006A4614A921F0F2FA01281FD114A90AA8DD
:10999800FFF7B6F90AA8FFF7BBF904AA01460AA817
:1099A80022F031FA08B305AC0023032221462846E9
:1099B80007F0F8FEF8B194E80F00124E06F108051A
:1099C80085E80F000123002033760CE0012C08D035
:1099D80002206A461EA921F0C9FA012801D11EA950
:1099E800D5E76FF03C0028B070BD6FF00D00FAE7C6
:1099F8006FF01500F7E76FF01200F4E7385B04002A
:109A0800655B0400E4EE002010B558B1084C237ED5
:109A180033B104F1080121F005FF30B100232376AA
:109A2800002010BD6FF01500FBE76FF00D00F8E7A0
:109A3800E4EE0020034B994202D103481EF0E8BA35
:109A4800704700BF020007D2815B040008B50B4BCA
:109A5800994203D00133994208D008BD08481EF046
:109A6800D7FABDE8084007481AF0CEBC06481EF0F1
:109A7800CFFABDE8084005481EF0CABA010014F143
:109A8800B35B040068D00020ED5B0400085C0400B0
:109A980037B520481EF0BCFA00212A200DF1070234
:109AA80011F0D2F9044630B101461B481EF0B0FA55
:109AB800204603B030BD9DF80730BBB101464FF4D6
:109AC800D7632A20154A11F061F918B914481EF015
:109AD8009FFAEDE713481EF09BFA21462A2011F061
:109AE80095F9014610B110481EF092FA09481EF087
:109AF8008FFA40F2B76300212A20084A11F01EF9B4
:109B080005460028D4D0014608481EF081FA2C46A4
:109B1800CEE700BF275C0400415C04003B5F040003
:109B28006A5C04007D5C0400935C0400C25C040071
:109B3800F0B52A230226042785B0CDE90263052261
:109B48004FF48D71009702AB054621F006F80446E4
:109B580048B129F0F5FC154B195815481EF058FA6C
:109B6800204605B0F0BD01224FF48D7128460097BC
:109B780003AB20F0F2FF044628B129F0E1FC0B4BBF
:109B880019580C48EAE70B23324600934FF48D71BD
:109B98002846094B20F0E1FF04460028E0D029F0D0
:109BA800CFFC024B19580548D8E700BF1400000045
:109BB800EB5C0400165D04003B5D0400475D040097
:109BC8002DE9F0417248A2B01EF022FA7148724B9A
:109BD8004360724B036109F0B5F87148714B4360FB
:109BE800714B036109F0AEF870481EF011FA0120BC
:109BF8000CF0C6FA044638B101466D481EF008FA62
:109C0800204622B0BDE8F081FFF742FF0028F7D1D7
:109C180068481EF0FDF901200CF0C4FA014608B1AD
:109C28006548EBE74FF0FF334FF0FF3263481AF017
:109C380011FC542221460DA829F06EFB01254FF492
:109C480080635F495F480E9310951EF0E1F96B46FB
:109C58005D495B480DAA20F06AFFA0B129F070FCAD
:109C68005A4B19585A481EF0D3F900214FF40040B6
:109C78001BF09AF914F090F9002840F082805548BA
:109C88001EF0C6F9BCE7009801AAC1692E23043169
:109C9800008920F048FF009B188908F04FFF01A9B0
:109CA80002464D481EF0B4F9009B4FF48172986843
:109CB800294620F059FF431C074603D147481EF0A8
:109CC800A7F9D2E7FFF734FF0028CED1009B3C4923
:109CD800DB6943485A8852BA92B21EF099F9009B40
:109CE8003846D3E9062120F024FF28B129F028FCC2
:109CF800364B19583B48B6E725463B4E00233846B5
:109D0800C5F13D02711920F020FF002805DA29F07D
:109D180017FC2E4B19583548A5E705443C2DEDD9BD
:109D2800294633481EF074F90025DFF8D480002353
:109D38003846C5F5006208EB050120F0FEFE061E58
:109D480005DA29F0FDFB214B19582A488BE73544E1
:109D5800EDD1294628481EF05BF9B5F5006F274973
:109D6800274834BF08F8056088F8FF6729F009F824
:109D780028B100232249437022481EF049F922489D
:109D88009DE722481EF044F926F02FFB38E700BF74
:109D98006D5D040014EF0020559A0100030014F1D2
:109DA80000EF00203D9A0100020007D28B5D0400FD
:109DB800AA5D0400C95D0400E45D040068D00020C9
:109DC8003B5D0400085E0400175E040014000000F8
:109DD8001B5E0400075F0400395E04004B5E04004C
:109DE800635E0400785E0400F3650400935E04007B
:109DF800AA5E0400B95E0400D05E04001AB2040032
:109E0800848E0120E35E0400EC5E0400245F0400FD
:109E180010B5094C0A44914200D110BD11F8013B1C
:109E280058400309E35C0001C0B243401809205CB4
:109E38001B01DBB25840EEE73166040008B500F0BC
:109E4800B7F8012200230949C0E900224161084905
:109E5800C0E902330A60074903610A60064A1360D1
:109E6800064A1360064A136008BD00BF276E040047
:109E780018C6002014C6002030EF00202CEF002068
:109E880028EF00202DE9F04107460E46154600F060
:109E98008FF8C36804461BB943691A78002A41D170
:109EA8000023E3606368BB4256F8232008DB324B8B
:109EB8006361204600F062F84FF0FF30BDE8F081A2
:109EC800511C616192F80080B8F12D0FEFD1911CFF
:109ED800616151782D29A16004D192786AB9013362
:109EE8006360E4E749B9244B41462846636128F09A
:109EF800E6FE0028DDD0C4F80880D4F8088028469B
:109F0800414628F0DCFEB8F13A0F636900D070B919
:109F18001B7813B9636801336360204600F02EF89C
:109F28003F20CBE75A1C42611B788360E5E7427803
:109F38003A2A0BD0002222611B7813B963680133D7
:109F48006360204600F01AF8A068B7E718786268DE
:109F5800094928B901329742626004DD56F8223077
:109F6800C4E90431EAE761612D7820463A2DD5D15C
:109F780000F004F82846A1E7276E04000268074BA2
:109F88001A604268064B1A608268064B1A60C268FB
:109F9800054B1A600269054B1A60704718C6002005
:109FA80014C6002030EF00202CEF002028EF0020FE
:109FB80000487047FCC500202DE9F04F97B000AF6E
:109FC800D7F880B03B62CBF3C0030446894690F8CB
:109FD80002A0FA62BB6141B9457800780AEB8000BB
:109FE80020444D4517D8A0EB0409E378FB61BAF18A
:109FF800000F02D01BF0010F16D1FB6953BBFB6A9F
:10A008001BB1494620463A6A98474D4628465C3770
:10A01800BD46BDE8F08F461C3046FEF779FE01309C
:10A02800304409F10109DCE7626823787A62FA6A48
:10A038009900796104EB8301002A40F005810E46FE
:10A048004FF000084D4601EB0A094E4550D101EB8F
:10A058000A0610E01BF0020FD1D023789A007A612B
:10A06800626804EB83017A62FA6A002A7BD14D4662
:10A07800904601EB0A061BF0050F0CBF02230123D3
:10A08800FB62FB6906EB430A0BF00203BB62564511
:10A09800BCD016F8021B16F8013C54F823909B4BD1
:10A0A800994502D39A4B99453AD3BB69002B44D0C2
:10A0B800786A1DF086FF00283FD09648036813F0A1
:10A0C800060F13D0E9468AB06A46934B53617B6A00
:10A0D800C2E906314FF400731384904B42F8103FE5
:10A0E80000234FF4125101F031F8CD46023DCEE77E
:10A0F80016F8013BF96254F82300FEF709FED7F879
:10A108008430F96A01304BB1D7F8883098453EBFA2
:10A11800D7F8843023F8180008F10108054494E7BB
:10A12800BB6923B1786A1DF04CFF0028C5D11BF02C
:10A13800010F05D1FB6AED1AA9E7BB6A002BA6D06F
:10A148004846FEF7E5FDD7F8843053B1D7F8883094
:10A1580098453FBFD7F88420431C22F8183008F1EF
:10A168000108054493E7BAF1000F73D01BF0040609
:10A1780073D0D046002607F1480052463B61B962C9
:10A1880029F0A3F8B96A3B6901EB0A02BA62FA69D5
:10A19800F9695200FA60BA6A02EB41023A610BF0BF
:10A1A8000202BA603A69B96A8A4258D162781BF0E9
:10A1B800020F18BF00217A6208BF4FEA5801B2188F
:10A1C8001BF0010FD2B240F09F801BF0040F14BFA8
:10A1D80040460020BB616270A070E17020463A6A78
:10A1E8007969FB6A9847051EFFF610AFBB694146BF
:10A1F80023707B6A3A6A6370FB6984F802A0E37093
:10A2080007F14800FB6A9847B0F10008C0F2B48033
:10A218007B69A9EB0A01C91AFB683A6AC91AD7E926
:10A228000A0398470028C0F2A9804FF0000BA84401
:10A2380008EB000507F1380AB34571D300213A6AE3
:10A248000846FB6A9847E1E656464FF0000807F1D2
:10A25800380092E75646D04696E7B04694E7BA6A81
:10A2680012F8021B12F8015CBA6254F82500274A5A
:10A27800904202D3264A90421ED3BA6932B1786A14
:10A288007B601DF09EFE7B6800288BD1BA6802BBFC
:10A2980008F1280207F1300C08F10100944407F195
:10A2A800580208F1020852FA80F00CF8101C5FFA04
:10A2B80088F800F8105C75E7BA693AB1786A7B608B
:10A2C8001DF07FFE7B6800287FF46CAF1BF0010F48
:10A2D80009D006F1280207F13000711C161806F89B
:10A2E800205CCEB25EE71BF0040F3FF45BAF08F1D1
:10A2F800280207F1300008F1010102EB000808F814
:10A30800105C5FFA81F84DE7002063E75C350400D4
:10A3180010E40400BCCC00204866040004000001DE
:10A328001BF80A3054F8239087F83730D7F8843070
:10A33800FBB133F81B8001213A6AFB6A07F1370049
:10A34800984700281ADB0544B8F1000F06D14846A3
:10A35800FEF7DEFC00F101081FFA88F8414648467E
:10A368003A6AFB6A9847002808DB05440BF1010BA1
:10A3780062E7D7F88480DEE7454647E6054645E6C6
:10A38800014B1B68184700BF1CC6002030B585B0BC
:10A3980004460D4610220021684628F0BDFF02231E
:10A3A8008DF80230044B2A462146684601931BF07B
:10A3B800AFFD05B030BD00BF89A30100014B186097
:10A3C800704700BF1CC6002080B505460E461746DC
:10A3D80098461AF007FE034629F0B2F80446DFF85B
:10A3E8001890424649F8003039463046A84754F894
:10A3F800090004F029FF00BF1000000000B5162274
:10A4080029F09EF8024B1A504FF0FF305DF804FB1C
:10A41800140000000F2800B508D929F091F8092286
:10A42800074B1A504FF0FF305DF804FB2822054B0C
:10A4380002FB0033D3E8AF3F002BEED00020F3E758
:10A448001400000028C600202823434330B50D49D6
:10A4580008330B44D3E8AF2F92B1541ED3E8EF5F13
:10A46800954204D1C3E8EC4FBCF1000FF6D1F1D10D
:10A47800012A05D12823584300230A180B5053609A
:10A4880030BD00BF20C6002038B504461546FFF78A
:10A49800C1FF00280DDB28236343074AD018406812
:10A4A800086015B10C3313442B6028235C43105902
:10A4B80038BD0020FCE700BF20C6002070B500258D
:10A4C8004FF0FF334FF0FF32174819F0B7FE174B24
:10A4D800D3E8AF2F82B10135102D03F12803F7D14E
:10A4E80029F02EF817224FF0FF35114B1A500E485D
:10A4F8001DF0AEFD284670BD28246C43D3E8EF0F4D
:10A508000130C3E8E10F0029F8D10A4E331932515E
:10A518005A6004F10C00304427F069FE04F1200071
:10A52800304428F003F8E2E7ACCE002028C600202B
:10A538001400000020C6002010B40446104628224B
:10A548005443094B1A191951506048B1C2683AB1BD
:10A558000C34234440F205125DF8044B1DF067BD2E
:10A568005DF8044B704700BF20C60020F8B50546CB
:10A57800FFF750FF00281ADB28246C430D4F04F125
:10A588000C063E444FF0FF324FF0FF33304619F0CF
:10A5980055FE3B195B6838599B6898470446304616
:10A5A8001DF056FD2846FFF74FFF2046F8BD4FF037
:10A5B800FF34FAE720C60020044608B5EFF31183FC
:10A5C800202383F31288BFF36F8F0CF03DFE2046E3
:10A5D80004F0F0FD02481DF01BFD20F032F9FCE705
:10A5E800FC6604002DE9F04300273C463D46DDF8B3
:10A5F8001CE0DFF8288175451FD3E4BB00201460F8
:10A60800BDE8F0830136764533D013F806C0BCF1B7
:10A61800200FF7D0AEEB0609B9F1010FA6EB05053F
:10A628000DD0BCF10D0F0AD103EB060999F8019082
:10A63800B9F10A0F6ED1751CDDE72E46E3E7BCF1D0
:10A648000A0FF8D02DB9BCF13D0F05D10137022F03
:10A658000DD96FF01500D3E71CF0800FF9D118F869
:10A668000C507F2DF5D03F2D01D8002FF1D10134AA
:10A67800E1E73546C1E74FF0060C04F00706E408A9
:10A688000CFB06F60CFB04F40736E41B04EBD604BB
:10A6980070B18C420CD80027014603263C46DFF8EF
:10A6A8007CE0DFF87C801D449D4205D10C1AA5E7AB
:10A6B8006FF00B001460A3E713F8019BA9F10A0CD3
:10A6C8005FFA8CFCBCF1160F04D848FA0CFC1CF09D
:10A6D800010FE9D01EF809C00134BCF1400F08BFD2
:10A6E800013E0CF03F0C042C4CEA8717DCD17EB1FC
:10A6F8003C0C012E0C7002D101310024D4E7022E4B
:10A708004FEA17244C7016BF8F7002310331F4E7FB
:10A718003446C9E7002DA2D09BE700BF2567040097
:10A72800F6FFBFFF2DE9F84340F26C7344690569F1
:10A73800E1170135E41841F10001022D8CBF002317
:10A748000123E41AC76861F100010029064607F1F0
:10A75800FF374EDA6FF4C7704FF4C8720023201821
:10A7680061F10001FEF70AF9244B4FF03C0E03FBA0
:10A778000044D6E900834FEAE37C99466346022DFC
:10A7880002468CBF6FF002000920B6680544C6FB7C
:10A798000E93A9FB0EC60EFB036640F26D1E9920B0
:10A7A800A3080EFB04333B44642745430520B4FB50
:10A7B800F7F40235B5FBF0F51B1B114C1CEB080C2C
:10A7C800A2FB042004FB01012B4446EBE876981811
:10A7D8000C4A41F1000380180B4A63F10003A0FB07
:10A7E800020102FB031110EB0C0041EB0601BDE86E
:10A7F800F8834FF4C87200232046B3E770FEFFFFCA
:10A80800B13A02009405F5FF8051010010B5FFF739
:10A8180089FF0024024628F093FE0B460249445063
:10A828001046194610BD00BF140000002DE9F0477E
:10A83800058B04462807904611D4022905F0070520
:10A8480040F0CC8020461DF0ABFE78B10138218B5A
:10A85800042811D8DFE800F0C2106D8595000129A1
:10A868000CBF45F0100545F02005258388F31188B5
:10A87800BFF36F8FBDE8F08701F0070AAA4500F023
:10A88800A5800027B9463E46A368002B00F0BC808F
:10A8980041F00801218388F31188BFF36F8FA16805
:10A8A800002900F0BA800D68002900F0B680334610
:10A8B80052462046D1F80480C047002D76D02B6838
:10A8C80029461D46F0E701F007035A1F012A1BD845
:10A8D800002221F00701062B276889B2C4E900226B
:10A8E80009D13B4603E0628B013262831B68002B6F
:10A8F800F9D141F00201204621831DF051FE0028C4
:10A908007AD041F0200176E0042B0AD121F007012A
:10A9180089B2204621831DF043FE10B141F0200189
:10A928002183218B01F0070AAA454FD00027B94699
:10A93800AAE7236921F0070141F00601062DD3F8A3
:10A94800009021832DD1B9F1000F3FD041F00801CB
:10A95800218388F31188BFF36F8F20463949C84790
:10A9680029E021F00701236941F0040189B2042D8F
:10A97800D3F804902183E6D000274FF0040A3E461E
:10A9880082E721F00701236941F0050189B2052D0D
:10A99800D3F808902183D6D000274FF0050A3E4609
:10A9A80072E700274FF0060A3E466DE72B4687E719
:10A9B800B9F1000FD1D1EFF31188202383F3128866
:10A9C800BFF36F8F238B23F008032383258BEA06BD
:10A9D8002ED525F01003238305F007056669218B22
:10A9E800002EBFF670AF00232768C4E9003321F0BA
:10A9F800070141F001012183218B4FF0000901F08B
:10AA0800070AAA457FF440AF002F9CD041F0080107
:10AA1800218388F31188BFF36F8F002FC8D03D685A
:10AA280039463346524620461DF0E6FD2F46F4E7E8
:10AA3800AB067FF51BAF25F02003238305F0070540
:10AA480000E700BF2D8603002DE9F04704460746BE
:10AA58004FF00109DFF8508014B93846BDE8F08797
:10AA680094FAA4F5B5FA85F509FA05F32E0108EB71
:10AA780005156FEA030A24EA03042B7B002BEBD0AD
:10AA880058F806301B694BB94644736804222846B7
:10AA9800196807EA0A0700F019FBDDE72846984716
:10AAA8000028D9D1F0E700BF903A040030B5002261
:10AAB80089B00F490F4827F030FF002200230024F7
:10AAC800CDE906230E230C4DCDE903344FF4407233
:10AAD8002846CDE90144094B0949009419F09EFF25
:10AAE8000849284619F0CAFE204609B030BD00BF03
:10AAF80011AB0100C8D60020B8D1002019AE010062
:10AB0800E0C20120B5670400014819F07DBC00BF10
:10AB180038D000202DE9F04780461F480F461EF028
:10AB280089FA0646002830D000252846BDE8F08777
:10AB3800237B6BB12368DB680BB1204698472368F9
:10AB48001B69D3B9636804222046196800F0BEFA6D
:10AB5800013610344C45EBD3B8F1000FE5D0002D89
:10AB6800E2D02846FFF770FF0546002FF7D00021F6
:10AB78004FF4A4701AF018FAF1E720469847002815
:10AB8800E0D00AFA06F31D43E2E705464FF0010A52
:10AB9800024CDFF80C90DDE744EF0020903A040007
:10ABA800B03A040008B5034608462BB1044A1360BE
:10ABB80000F018FD002008BD6FF01500FBE700BF8E
:10ABC800A0C8002010B5044C237813B9034819F025
:10ABD8001BFC0123237010BD8496012038D000206F
:10ABE80010B5044606481EF025FA3CB1054BD3E8DB
:10ABF800EF1F0139C3E8E21F002AF8D110BD00BFDA
:10AC08003CEF002040EF002000200146034BD3E832
:10AC1800EF0FC3E8E21F002AF9D170473CEF00208C
:10AC280070B5FFF7F1FF0546074C084EB44200D354
:10AC380070BD63685B792BB123685B6813B12946E3
:10AC4800204698471034F1E7903A0400B03A0400DF
:10AC580010B5044C044920461DF0FAFA034B1C6059
:10AC680010BD00BF74CC0020E83F040034EF002082
:10AC780008B50023084A4FF400411370074A0848F2
:10AC88001360084A1360FFF78DFFFFF7E1FFBDE887
:10AC9800084000F06BB900BF859601203CEF00200A
:10ACA8003990030040EF00200146002200230148AC
:10ACB8001DF0EFBA74CC002001481DF085BB00BF21
:10ACC80074CC0020024B014618681DF0D1BB00BFB0
:10ACD80034EF002001481DF006BC00BF74CC0020F2
:10ACE8002DE9F041334B1878002860D0FFF7E4FFD6
:10ACF800044678B1304BD3E8EF1F0139C3E8E21FAF
:10AD0800002AF8D12D4DDFF8C08045452DD32046C7
:10AD1800FFF7D8FF2A4B2B4C1B68002B19DD27F0B7
:10AD2800B5FD4FF47A72A0FB020302FB0131C30B9D
:10AD380043EA4143D4E900209B1A40F2E9324FEA42
:10AD4800D13161EB0001934271F1000101D3FFF7AA
:10AD580067FFD4E9003213F57A7342F10002C4E9BF
:10AD68000032BDE8F041FFF7B5BF6B685B793BB1D6
:10AD780021784B0706D52B68214628461B6898473B
:10AD88001035C2E720462688C1F3C20700F066FAEC
:10AD9800C6F382160246002EEDD00028EBDB012315
:10ADA8003946284600F0ACF9B042E9D3E3E7BDE8FC
:10ADB800F08100BF8496012040EF0020903A040003
:10ADC8003CEF0020C0D60020B03A040070B50D4D0D
:10ADD800297861B90120FFF79DFE0B4C0B4EB44258
:10ADE80006D3FFF77DFF0028FBD101232B7070BD30
:10ADF80063685B791BB1236820469B6898471034C9
:10AE0800EDE700BF85960120903A0400B03A0400AF
:10AE180000212DE9F0470846FFF77CFE044658B3A9
:10AE280040F267684FF0000928F08AFB1B4B1C4A68
:10AE38001B58136033B11B4B1B68092B02DD1A48E2
:10AE480019F0E2FA0025194FDFF85CA044B120465A
:10AE5800FFF7FAFD044618B94FF0FF384FF0FF39F5
:10AE6800FFF73EFF064628B9B5B942464B4650465D
:10AE780019F0F0FA3546E9E74FF0FF384FF0FF399F
:10AE8800D2E72B689B691BB10022284611469847D8
:10AE98001035BD42F5D3E8E7054DFAE7100000008C
:10AEA80038EF002040EF002038D00020B03A0400EE
:10AEB800903A040013B518481EF0BCF8174B1B78DD
:10AEC80073B1EFF31184202383F31288BFF36F8FDC
:10AED800FFF706FF84F31188BFF36F8F02B010BD30
:10AEE8000F4B1B68002BF9D050B9002200230D48E6
:10AEF800CDE900234FF4004200231AF023FBEDE7CD
:10AF08000928EBD1074827F014FD074802B0BDE82F
:10AF1800104019F079BA00BF40EF00208596012053
:10AF280038EF0020C8D6002038D0002010B5064BD6
:10AF380004461B6898472146A06004481DF025FA7E
:10AF4800BDE81040FFF7B6BFA0C8002074CC0020B1
:10AF5800044A054B9B1AB1EBD30F34BF52F83100AA
:10AF68000020704720390400903A040000210B4863
:10AF78000B4B30B51B1A0B4CDB080430994200D13F
:10AF880030BD10F83120256802F0070225F00705CA
:10AF98002A4344F8042B0131F0E700BF20390400AC
:10AFA800903A0400B8CC0020F8B5064600240A4FB1
:10AFB8000A4DED1BED08AC4203D14FF0FF3420469B
:10AFC800F8BD57F8340020B13146FDF78FFE002850
:10AFD800F5D00134EFE700BF20390400903A0400AF
:10AFE80000282DE9F047884615461F461DDA4FF020
:10AFF800000A5446DFF8A090234EA6EB090636094E
:10B00800B24509F1100902D12046BDE8F08759F888
:10B018000C0C3B462A4641460079FFF7E1FF844283
:10B0280038BF04460AF1010AEAE7184B184AD21A4F
:10B03800B5EBD20F26D203EBC5031C79BC4228BF5F
:10B048003C460722134EC0B200EB400056F82530AC
:10B05800824023EA020304F00702824013430021DE
:10B06800032223FA02F000F00700814202F10302F2
:10B0780038BF01461E2AF4D123F007030B4346F8D4
:10B088002530C1E70024DCE7B03A04002039040089
:10B09800903A0400B8CC0020903A0400F8B506466F
:10B0A8000F460024074D084BED1AED08AC4200D3BB
:10B0B800F8BD002122B23B46304601341DF0C8FFDE
:10B0C800A4B2F3E7903A04002039040038B50D46DD
:10B0D80011460A4B4268C31A1B1104460133137107
:10B0E80043689971FFF7DAFF012263681D6063689E
:10B0F8005A71BDE83840FFF765BD00BF903A0400BB
:10B1080070B14168097973B1002A17DBCBB20C49D9
:10B1180003EB430351F82200D84000F007007047C2
:10B128004FF0FF31EFE707490748401AB2EBD00F5D
:10B138003ABF01EBC20108791846704704207047EE
:10B14800B8CC002020390400903A04002DE9F04FD3
:10B158008FB0C1F34A2804AF0D469146B8607B60B2
:10B168000C0DB8F1000F67D000264FF0040B4FF01C
:10B178000A0A07F11403C7F80C80C7E907667E625C
:10B188000193CDF808B0CDF800A007F11C033246B2
:10B198004846F968FEF710FFB0F5006F034620D364
:10B1A8002A48036813F0060F17D06C468AB0D9F8FE
:10B1B800041004AB264D1A46C3E9055140F2FF714D
:10B1C800D9614FF400711984224B42F8103F4FF4B3
:10B1D80012513346FFF7BAFFA5462C37BD46BDE8E6
:10B1E800F08FC0F30A0804F11700184420F0070094
:10B1F80080083B60FFF758FD68F35325044690B17B
:10B208003B6800F11001C7E9083607F11403F9613A
:10B21800CDE900A3CDF808B048460F4AF96807F110
:10B228001C03FEF7C9FE68F353252A4620467B68AF
:10B23800B9681DF037FFD0E704F1170020F00700C8
:10B248008008FFF731FD0446EDE700BFD8CC0020A9
:10B25800CA6704000400000181900300406820B11F
:10B26800034BC01A40F38F0070474FF0FF30704710
:10B27800B8CC00200EB403B503AB53F8042B014639
:10B288000448019304F0D8FB02B05DF804EB03B066
:10B29800704700BFC1910300CA0605D48B064CBF96
:10B2A80002490349FFF7E6BF704700BF266E040056
:10B2B8001AB204002DE9F04F8BB09B46169B9DF8FF
:10B2C80054A00693179B04460593189B0D46904679
:10B2D800199E0493BAF1000F00F09E8006F0010356
:10B2E800089306F00803079306F4807309931DF08A
:10B2F800ADFE06F00209024600283BD020468F49E1
:10B30800FFF7B8FF0746B9F1000F08D016F0440F51
:10B3180032D12A4620468A49FFF7ACFF0744089BEA
:10B3280053B1884B204653F82A20874B8749002A77
:10B3380008BF1A46FFF79EFF099B002B48D0079BC2
:10B34800002B62D1B8F1000F64D0424620468049F4
:10B35800FFF790FF0546069B3D44002B6BD1049BED
:10B36800002B71D1F30700F1E28031462046FFF748
:10B3780093FFD6E00746C6E7764B18680028CDD07D
:10B38800754B4FF47A791B684FF46161B5FBF3F59F
:10B39800B5FBF0F300FB135509FB05F5B3FBF1F220
:10B3A800B5FBF0FE4FF03C0C01FB123100FB1E55C3
:10B3B800B1FBFCF309FB05F5B5FBF0F50CFB13112C
:10B3C80020460091CDE901E56449FFF753FFA5E761
:10B3D800079BEBB1624B204653F82A206149FFF7DF
:10B3E80049FF0546B8F1000F05D0424620465849A6
:10B3F800FFF740FF0544BBF1000FACD05A4620468A
:10B408005949FFF737FF0544A5E74FF0000BE1E77F
:10B41800079DE7E745469EE7BBF1010F069B06D16E
:10B42800002B64D1049B002B7BD000250CE0002B63
:10B43800F8D04E485CE04E48069B22464D491CF029
:10B448008FFD049B002B68D0DFF83881DFF8389136
:10B45800049F3146102F204628BF10274FF0000BBD
:10B46800FFF71AFF5D4545DC059B494620461A78DB
:10B47800FFF700FF4FF0010B1BF0070F03D1414608
:10B488002046FFF7F7FE5F453BD9059B4946204616
:10B4980013F80B20FFF7EEFE0BF1010BBBF1100FB9
:10B4A800EAD14FF0000B20463349FFF7E3FE5A4636
:10B4B800059B20469A5CA2F120015F2928BF2E2215
:10B4C8002E49FFF7D7FE0BF1010BBBF1100F1DD072
:10B4D8001BF0070F03D141462046FFF7CBFE5F451F
:10B4E8005A46E5D841462046FFF7C4FEEBE7204818
:10B4F8005546A1E741462046FFF7BCFE0BF1010B7C
:10B50800B0E720461E49FFF7B5FEC5E7059B3B445B
:10B518000593049BDB1B04939AD1BAF1000F7FF4C7
:10B5280021AF20460BB0BDE8F04F1DF038BE2046D5
:10B53800054A0649FFF79EFE17E700BF0E6804009C
:10B5480012680400FC3F040009680400AB700400A2
:10B55800376804004CEF002048EF00201B68040007
:10B56800104004003B68040041680400EF910300A8
:10B57800C191030041FA0100506804007A95040063
:10B588004C6804004E6804004668040042F20F73D9
:10B5980073B58B4228BF0B460568044605216846EB
:10B5A8000D4A1AF03BFA06466368284604225B688F
:10B5B8000A491DF0E6FD63683246694628465B681D
:10B5C8001DF0DFFD6368172228465B6804491DF0FB
:10B5D800D8FD02B070BD00BF38AB04006A68040033
:10B5E8005268040000210123064A904206D8064A00
:10B5F80001B901231360054B186070470121400809
:10B608005B00F2E740420F0048EF00204CEF0020BB
:10B61800014B0360002070472440040070B5114BB3
:10B628000D461C68DCB1104B196800238B4202DB05
:10B638006FF0010070BD224612F8106B864202D0EE
:10B6480014460133F2E7E06810B96FF01200F1E731
:10B6580026F0E7FC0028F8D000202C60EAE76FF01D
:10B668000C00E7E72CC900202046040070B588B01C
:10B6780005460C46C0B269461646FFF7CFFF0028BC
:10B688001BDB0098C8B14368226802938368019560
:10B69800CDE903360023CDE906230593C5681DF0DF
:10B6A800E5FD6DB12846084901AA22F001FE079878
:10B6B80008B9059B236008B070BD6FF01500FAE764
:10B6C8006FF01200F7E700BF0593030070B50D4651
:10B6D8001646044638B331B32022002127F01CFE59
:10B6E80028881122022104F073FD0028E06005DAA1
:10B6F80027F026FF0D4B1858404270BD32462946A8
:10B7080004F0AAFE0028E06802DA04F0BBFDEFE7C7
:10B718000121A36844F8330004EBC3020B44918071
:10B728000020A360E9E76FF00D00E6E714000000D1
:10B73800F0B504469BB00F4615460021302202A8FA
:10B7480027F0EAFD002C00F0A180002D00F09E807B
:10B758009DF8083023F03F0343F01B038DF80830B1
:10B7680027F094F84B4A0026A0FB020302FB0131A4
:10B7780010F5804041F10001C00B40EA4140002330
:10B78800444AC90BFDF7FAF841F2C6034FEA106CB8
:10B798005A4303024CEA012C03F47F0343EA0C03E7
:10B7A800C4E9040143EA0063000A00F47F4003434C
:10B7B800A26112BAE0680C930D9230223346CDE9AB
:10B7C800006602A904F014FF002810DB314630227D
:10B7D8000EA827F0A1FDA1683A4620461FF0A8FB55
:10B7E800B04206DA27F0ACFE2B4B185840421BB08B
:10B7F800F0BD42D0E06830223346CDE900660EA99C
:10B8080005F024FA0028EDDB302839D1D4E90412F8
:10B81800149B1BBA964208BF8B4202D06FF01500EA
:10B82800E5E7159BA2691BBA9342F7D19DF838301A
:10B8380003F00703042BF1D19DF839301BB3189B93
:10B84800199A1BBA12BA53EA0201E7D0AA60002279
:10B8580093420DDA11498B4202D8C5E90032DDE77F
:10B868000F4A9B1862EB02020020C5E90032BEE7CE
:10B878000B495B1842F10002F6E76FF07300B6E778
:10B888006FF07900B3E76FF00F00B0E76FF00D00CD
:10B89800ADE700BF40420F00140000007F7EAA837E
:10B8A8008081557C2DE9F0410F4B05461C680E46FA
:10B8B8001746ACB14FF0FF324FF0FF330B4818F08A
:10B8C800BDFC63683246D3F8088029463B462046CB
:10B8D800C0470446054818F029FD2046BDE8F08118
:10B8E8006FF00104F9E700BF50EF0020B0CF00204F
:10B8F80000230360044B5A6812B9C3E9000070477B
:10B9080010605860704700BF54EF0020014B18606A
:10B91800704700BF50EF0020002330B585B00546C2
:10B92800CDE9023301904FF0FF334FF0FF320B485F
:10B9380018F084FC0A4B1C684CB9284600F024F91E
:10B948000446064818F0F2FC204605B030BD63688E
:10B9580020461B6801A998472468EDE7B0CF00206E
:10B9680054EF00201FB5CDE9010103924FF0FF33DA
:10B978004FF0FF32094818F061FC094B1C682CB9DC
:10B98800064818F0D3FC204604B010BD6368204672
:10B998001B6801A998472468F1E700BFB0CF0020D1
:10B9A80054EF00200022024BC3E90022704700BF79
:10B9B80054EF00200022024BC3E90022FFF7F2BF38
:10B9C8005CEF002070B505461A4C1B4EB44212D3EA
:10B9D8001A4E4FF0FF324FF0FF33194818F02EFC83
:10B9E80034687CB1286854F8141C143CFDF77EF9BF
:10B9F800C8B16469F5E721682868FDF777F9A8B147
:10BA08001434E3E700226A61726805F114033AB955
:10BA1800C6E9003300240A4818F088FC204670BDA7
:10BA280013607360F6E76FF01004F4E76FF010042A
:10BA3800F4E700BFF43A0400F43A04005CEF002095
:10BA4800B0CF00202DE9F74307460C4609B1002383
:10BA58000B6000261E4DDFF880904D450FD31D4B1F
:10BA68001D6885B355F8148C3846414601AA143D23
:10BA78001DF06FFC10B3D6B914BB2E461EE0D5F8E6
:10BA880000803846414601AA1DF063FC50B116B942
:10BA980054B92E4606E00022404631681DF059FC94
:10BAA8000028F5D11435D8E7019B2360F1E700227F
:10BAB800404631681DF04DFC0028DDD16D69D0E7A6
:10BAC800019B2360D9E7304603B0BDE8F08300BF8F
:10BAD800F43A04005CEF0020F43A04002DE9F04742
:10BAE80084B002AFD7F8289004460D46164698460B
:10BAF8007860B9F1000F07D0D9F8001051BBD9F818
:10BB080004A0BAF1000F2CD12046391DFFF79AFF87
:10BB180028B34346D0F80890324629467868C84783
:10BB28000346E0B115480268520718D06D468AB03E
:10BB380002AAD3614FF4007311491384114BC2E96F
:10BB4800051442F8103F00234FF41151FFF7FEFA95
:10BB5800AD4604E03A1D1DF0FCFB0028CFD10020C3
:10BB680007E0D9F8083032460093294643467868FA
:10BB7800D0470837BD46BDE8F08700BF58CD002044
:10BB88008F68040004000001F8B506460025174C2C
:10BB9800174FBC4208D3174B1C682CB3143CB6B9DA
:10BBA800E368E3B96469F8E72EB9E3685BB9284646
:10BBB80005461434EDE70022314620681DF0C9FB24
:10BBC8000028F2D1F3E79847002DF0D1F0E70022E2
:10BBD800314620681DF0BDFB0028E1D1E2E7984717
:10BBE800002D08BF0546DDE72846F8BDF43A0400F5
:10BBF800F43A04005CEF002038B50C4D4FF0FF33E9
:10BC08004FF0FF320A4818F019FB2B783BB9FFF7C1
:10BC1800D1FE00F0BDFA044610B901232B700024B0
:10BC2800034818F083FB204638BD00BF86960120E4
:10BC3800B0CF00202DE9F04FDFF8B0A08FB002930D
:10BC48009AF80C300646894615460193002A46D0D4
:10BC5800904620230593019BDAF8004096FBF3F702
:10BC68005F431998394605AB06AAA0470446002841
:10BC780038D1059BF71BDA1B424528BF4246009383
:10BC880006AB1F44189B93462BB33846197827F008
:10BC98000EFB10B30123A0EB070B5A463946484662
:10BCA800039327F012FB009BA8EB0B081F2B039BA9
:10BCB80005D923B9D9445E44B8F1000FC9D1029A15
:10BCC800A5EB08051560189A0AB183F0010420460F
:10BCD8000FB0BDE8F08F189BDFE72346DDE76FF074
:10BCE8001504F4E76FF00404F1E700BF64EF0020E7
:10BCF8002DE9F04F8BB08246884615460193FDF733
:10BD080007F8DFF8C090524699F80C700199B0FB1B
:10BD1800F7F407FB1404A0EB040B5B461498D9F85E
:10BD28000460B047019B5B4401932CB122460AEBA7
:10BD38000B0102A827F0C9FA3D2204F128036B443D
:10BD480003F8202C04F1010ABAF11F0F01D90024CD
:10BD580010E005BBBAFBF7F407FB14A44CB10AF1D9
:10BD680008033C1B224629460DEB030027F0D4FAB2
:10BD7800A2440124534601991498D9F8046002AAF0
:10BD8800B047C8B9D4B9019B012453440193AA46CA
:10BD9800002DEFD08246CAF12004AC4228BF2C46C1
:10BDA8000AF10803414622460DEB030027F08DFAFD
:10BDB800A0442D1BA244C7E76FF004000BB0BDE8F8
:10BDC800F08F00BF64EF002010B5034B04469B685A
:10BDD80008469847001B10BD64EF00202DE9F04786
:10BDE80080468A4691461D466FF0150086B00E9E25
:10BDF800134F16B906B0BDE8F087102E334628BF9A
:10BE080010232946019348463C6801AB02AAA04783
:10BE18000028EFD1019B397BB3FBF1F201FB123211
:10BE28000AB10B449B1A514640467C6802AAA047B7
:10BE38000028DFD1019B1D449A44F61AD9E700BFB8
:10BE480064EF002010B5034CC4E90001A26023731D
:10BE580010BD00BF64EF002030B5044685B0104621
:10BE68001D46CDE90212FFF7AFFF044A01460095CF
:10BE7800204602ABFFF732FE05B030BDE793030062
:10BE88002DE9F04F0546B3B00E46174600211022A3
:10BE980002A8984627F040FA2B6CDFF8C890DFF824
:10BEA800C8B0069305F1080A504602A91DF053F8D8
:10BEB80018B1002033B0BDE8F08F02AB6A464A21C2
:10BEC8000CA81DF09BFA034648B1D9F80020520788
:10BED800E8D00121224A23481DF03DF9E2E7009A03
:10BEE80002F1C801694401F8980CB8F1000F12D0AA
:10BEF800BDF8143001329A42D4DA07AC0DF1080CBF
:10BF0800BCE80F000FC4DCF800302360504607A9D6
:10BF18001DF021F830B1009A3B46013202A90CA865
:10BF2800B047BFE74A2107AB01AA1FA81DF066FA70
:10BF380048B1D9F800305B07E8D001215A46484695
:10BF48001DF000F9E2E7019B1FA9C8336B4403F811
:10BF58004C0C0CA8FCF7CAFE0028D7D1A2E700BFFA
:10BF6800B468040058CD0020D16804000A460123B3
:10BF78000149FFF785BF00BF61BE01002DE9F04F01
:10BF880005460F4691469846BFB003B17AB10024E2
:10BF9800284623465E4905AACDE90579CDE90784F7
:10BFA800FFF76EFF089B012B00F0AD8017B96FF00B
:10BFB8001504A8E0414638461DF001FA83466B7B1C
:10BFC8009C42F4DA05F108060DF1240A524630467F
:10BFD8001FFA8BF11CF09CFC10F11C0F03467CD15E
:10BFE8006B7B013BA3421DDD30461CF06FFC824693
:10BFF800C0B9286C1DF07BF92B6CCDE90EAA129301
:10C0080030460EA91CF0A7FF70B130461CF0BDFFEA
:10C01800034638B13F480268520703D001213E4A1F
:10C028001DF099F80134CAE7AB6A0E9A9A42ECD12E
:10C0380049210EAB03AA18A81DF0E0F90028DFD1AA
:10C04800039BBDF8442001339342D9D00DF14C0C29
:10C058000DF1380EBEE80F00ACE80F00DEF8003036
:10C06800CCF80030304613A91CF075FF10B33046E9
:10C07800BDF8441013AA1CF04BFC03460028BFD19E
:10C08800BDF844200146009213A80EAAFFF7A6FEA9
:10C098000028B5D1304613A91CF0DBFC0346002864
:10C0A800AED01C4802685107AAD001211B4A1DF0D6
:10C0B80052F8A5E7492113AB04AA2BA81DF09EF955
:10C0C8000028CFD1DDE903239A42CBD12BA918A8A8
:10C0D80026F0E5FD0028C5D192E700287FF467AF78
:10C0E8002A6C49460D9238464246CDF800A0FFF723
:10C0F800FFFD431D044606D0514630461CF0A9FCFE
:10C10800002C08BF044620463FB0BDE8F08F00BFB2
:10C118002594030058CD002006690400E568040052
:10C12800012370B504460373837300F108061DF0FC
:10C13800D8F931461CF091FD0546B0B930461CF0DF
:10C14800FBFC00280ADCE36A206CD3E900121DF02E
:10C15800B8F80028EBD06FF0040504E0044B204643
:10C168006360FFF7C5FB284670BD6FF01505FAE759
:10C178002440040090F83E30024A03490348FFF780
:10C1880061BE00BF9F940300A7940300BB94030003
:10C19800092337B500931DF0A4F969461A4AFFF739
:10C1A80065FA044610B110F10C0F0FD1174D009B22
:10C1B80028466B73FFF7B4FF58B9154B13486B60EB
:10C1C800FFF7A4FB1148FFF7D5FF0024204603B072
:10C1D80030BD1DF086F901A9C0B2FFF71FFA044669
:10C1E8000028F3D10198214682681DF06AF80446B8
:10C1F80001981DF03BF8002CE8D12846FFF790FF86
:10C2080004460028D9D0E1E774EF0020A4C8002034
:10C218002440040007B55368012100931368044AB9
:10C228001DF0CAFA6FF0150003B05DF804FB00BFFB
:10C238002069040038B5054650681DF086F80446A4
:10C2480028B1034601212846024A1DF0B5FA2046C6
:10C2580038BD00BF3A69040037B502290546009089
:10C2680014BF0020506808496A460190FFF77AFB1E
:10C27800044628B1034601212846044A1DF09CFAC9
:10C28800204603B030BD00BF3DC30100586904001B
:10C298002DE9F0410D46C0B0002116461F46469CC8
:10C2A8001DF07BF898B94FF00108B5F5807F2A4654
:10C2B800694628BF4FF48072384684F80580B04735
:10C2C800031E08DA4146164A20681DF075FA002058
:10C2D80040B0BDE8F08103D10321124A206815E07F
:10C2E800217939B101290BD0B5F5807FEFD9082123
:10C2F8000D4AF3E71A46694620681DF06AFAF3E723
:10C308006B4413F8013C20681BB1084A1DF054FA2D
:10C31800DDE76B460821064A1DF04EFAE4E700BF48
:10C32800756904008F690400B66904009F690400F8
:10C33800E06E040007B504990346D1E900024AB14A
:10C34800009308211346064A1DF036FA002003B070
:10C358005DF804FB0821034A1DF02EFAF6E700BF3A
:10C36800D7690400E06E040038B50C460849054654
:10C37800FCF7BCFC38B128460649FCF7B7FC20B9E5
:10C388002070002038BD0120FAE76FF01500F9E7AA
:10C39800DB980400DE6904002DE9FF41002302292F
:10C3A80006460D4617468DF8073012D9D2F8048094
:10C3B8000DF107014046FFF7D7FF044648B1434651
:10C3C800154A012130461DF0F7F9204604B0BDE8B2
:10C3D800F0819DF8073011498DF80C3000238DF855
:10C3E8000D3005F18043013B57F8230002AA02965D
:10C3F800FFF7B8FA044610B10346094AE1E79DF889
:10C408000D30002BE1D101213046064A1DF0D4F948
:10C418006FF00104D9E700BFE269040099C2010086
:10C42800F4690400106A040000232DE9F04303298D
:10C43800A3B006460D4617468DF807301DD9D2F829
:10C4480004800DF107014046FFF78EFF044630B126
:10C458004346284A012130461DF0AEF93FE09DF8D9
:10C468000790B9F1000F08D0B9F1010F24D00121CC
:10C478003046214A1DF0A0F92FE005F18043013B29
:10C4880057F823402046FCF743FC8023014602AAC4
:10C4980020461CF04DF804460028E8D005F18045F8
:10C4A800023D224657F8250002A9FFF7FBF904468A
:10C4B800A8B10346114ACDE705F18043013B57F87F
:10C4C80023804046FCF724FC441C802C0BD94346AF
:10C4D800494630460A4A1DF06FF96FF015042046A8
:10C4E80023B0BDE8F0832246414602A826F0EDFEBF
:10C4F800D4E700BFE2690400456A04005C6A0400EE
:10C50800236A040008B50821024B034A1DF054F9B8
:10C51800002008BDEF6B0400F66B040030B585B051
:10C52800054601A911481BF00BFD044650B103460E
:10C53800012128460E4A1DF03FF96FF007042046F6
:10C5480005B030BD2846019B08210A4A1DF034F980
:10C558002846029B0821084A1DF02EF90821284682
:10C56800039B064A1DF028F9E9E700BF34CE0020F6
:10C578008B6C0400C26C0400D76C0400EC6C0400E3
:10C5880010B504460AF056FE08210346074A20461D
:10C598001DF012F92046064A08211DF00DF9214622
:10C5A800044818F0DFFD002010BD00BF016D040035
:10C5B800206D0400C1C501002DE9F0419AB0044680
:10C5C8000D46D0F8AC6025F0BBFF024626F0B8FF58
:10C5D800374B1958374B2846002A18BF1346364A96
:10C5E800CDE90043354B8C4218BF13460821344A25
:10C5F8001DF0E2F8D4E90A23CDE9022394F90E30BC
:10C6080008210093237B28462E4A1DF0D5F82022C6
:10C6180012A9204618F042F9626F034608212846FD
:10C628000092294A1DF0C8F8204606A925F09FFF68
:10C6380020BB0CA825F0A5FF18BBDDE90C2364215D
:10C64800DDF81880079FA8FB010C01FB07C1FCF768
:10C65800E5F943460090082128461C4A1DF0ACF82D
:10C66800204605A925F07CFF034680B1082128460D
:10C67800174A1DF0A1F81AB0BDE8F0810CA825F002
:10C6880080FF08212846134A1DF096F8E8E764233E
:10C69800059A2846B11A4B43B3FBF6F3CDE90021BE
:10C6A800CDE90263082133460B4A1DF085F8E2E71D
:10C6B800100000002A6D04004E680400CD820400BA
:10C6C8002D6D0400396D0400656D04007C6D040057
:10C6D800C46D0400A16D0400F16D0400F0B50025DF
:10C6E800044693B029460AAF1C220BA826F014FE74
:10C6F800134E1A222021384626F00EFE21461148F4
:10C7080018F030FD09AA4FF40061304625F01CFFEF
:10C7180064224FF400630999CDE90057C1F5006020
:10C728004243D20ACDE90403CDE9023120460692FC
:10C7380033460821044A1DF03FF8284613B0F0BDDF
:10C74800E018022045C80100286E040010B5044610
:10C7580021F0B3FF08210346024A20461DF02CF8B9
:10C76800002010BD716E04002DE9F3411746002327
:10C7780004460A21B86801AA019301F067FC019DEB
:10C78800C6B255B12B4601212046144A1DF014F8B3
:10C79800019D284602B0BDE8F081042E0AD933462F
:10C7A800012120460E4A1DF007F820461DF057F8D3
:10C7B8000125EEE77868FEF7F7FBB0F1000805DA27
:10C7C800012120467B68074A1CF0F6FF002133460A
:10C7D80008460FFA88F21CF03BFCDAE7876E040083
:10C7E800AE6E0400C56E04001346002273B50446FD
:10C7F80001920A21586801AA01F028FC019D95B907
:10C8080020EAE0744FF40046294640F2E7304FF43E
:10C818007A720023C4FB0601FCF700F918F0C4FB88
:10C82800284602B070BD2B4601212046024A1CF062
:10C83800C3FF019DF4E700BFE46E0400F0B50446B1
:10C848000D46D0F8AC6089B007A925F089FE0346EB
:10C8580030B1082128460F4A1CF0AEFF09B0F0BDE0
:10C86800204625F06DFE6423079A0B4FB11A4B43FF
:10C87800002818BF0746B3FBF6F3CDE90221CDE93E
:10C888000463082123462846CDE90076034A1CF0B4
:10C8980093FFE3E7C46D04002A6D0400046F0400ED
:10C8A8002DE9F04387B00546684617F07FFA142350
:10C8B800009E082103FB0066164A28461CF07CFFF0
:10C8C800154F009CDFF85C80DFF85C90B44203D31E
:10C8D800002007B0BDE8F08323680BB11A7832B99D
:10C8E80023463A46142101A819F098F801AB4246AC
:10C8F800082128461CF060FF204625F092FB074BD4
:10C908000821002808BF4B46054A28461CF054FF5A
:10C918001434DBE79A700400A47004008B700400E0
:10C92800445E0400A9700400917004007FB50A6891
:10C938004B6904924A6803F26C7303928A68029204
:10C94800CA6801920A69082101320092024A1CF061
:10C9580033FF07B05DF804FBDD700400F7B513780A
:10C9680006463A2B0F46154616D1541C23783A2B07
:10C978002DD1013400230A22204601A9019319F080
:10C98800C1F8019A0346A24238601AD01078C0B99B
:10C998003C2B18D9184A10E000230A22284601A97E
:10C9A800019319F0AFF8019CB860AC4209D0237824
:10C9B8003A2B06D1172808D9104A012130461CF015
:10C9C800FBFE6FF0150003B0F0BD0134CEE7002385
:10C9D8000A22204601A9019319F094F8019B786076
:10C9E800A342EED01A783A2AEBD13B2801D9044A5F
:10C9F800E3E75C1CBEE700BF1C710400FE70040086
:10CA08000C7104002DE9F0430D4691B002A90446CB
:10CA18000120174603F068F807A902A818F05AFF82
:10CA2800032D5FD14FF000097D680A22284601A92D
:10CA3800CDF8049019F066F8019E8046B54218D0EA
:10CA480032782D2A15D101360A22304601A9CDF8AF
:10CA5800049019F057F8019B9E420AD01A782D2AA3
:10CA680007D1451E0B2D0DD92A4A012120461CF05D
:10CA7800A3FE20461CF0F3FE6FF01505284611B002
:10CA8800BDE8F0835E1C0A22304601A9CDF8049067
:10CA980019F038F8019B9E42EBD01B78002BE8D1A7
:10CAA800431E1E2B01D91C4ADFE7A8F26C73CDE99F
:10CAB8000B53BA680A90204607A9FFF74FFF0028D2
:10CAC800D7D107A8FDF7A2FEB1F1FF3F08BFB0F12B
:10CAD800FF3FCDE9020109D1012120460F4A1CF090
:10CAE8006BFEC9E7022DC4D17A68E4E70023012070
:10CAF80002A90493FCF78CF9054630B103460121DD
:10CB08002046074A1CF058FEB6E7204607A9FFF75B
:10CB18000DFFB3E72C7104003B7104004871040059
:10CB2800717104008B1E022B2DE9F04107468846DF
:10CB3800144637D810220021606819F0E9F8B8F1D6
:10CB4800020F064607D1202308213846244A1CF044
:10CB580033FE336816E00A220021A06819F0D8F8DD
:10CB6800C5B22B46082138461D4A1CF025FEB8F1EF
:10CB7800040F1AD0102D0DD0202DEAD0082D0CD17D
:10CB88003378DBB208213846164A1CF015FE00201F
:10CB9800BDE8F08133889BB2F4E708213846124A91
:10CBA8001CF00AFE6FF01500F2E710220021E06881
:10CBB80019F0AEF80821034604460C4A38461CF022
:10CBC800FBFD102D06D0202D07D0082DE5D1E4B2AD
:10CBD8003470DCE7A4B23480D9E73460D7E700BF0B
:10CBE800B1710400DC710400C6710400ED71040029
:10CBF8002DE9F04F91464FF0FF350122574B85B094
:10CC0800074688461A602026FDF718F92C46DFF8F3
:10CC18006CA1494652464046FDF734F9411C07D1FC
:10CC28006A1C52D14E4A012138461CF0C5FD1DE050
:10CC3800732820D0772833D0612817D1DFF840B186
:10CC480010220021DBF8000019F062F805460028E0
:10CC5800DFD126F075FC434B1B58162BD9D1DBF8D6
:10CC68000030414A012138461CF0A6FD6FF015003E
:10CC780005B0BDE8F08F0022DFF804B11146DBF8FB
:10CC8800000019F045F804460028C2D126F058FCE7
:10CC9800344B1B58162BBCD1DBF80030334AE1E784
:10CCA8000022DFF8DCB01146DBF8000019F030F89C
:10CCB80006460028ADD126F043FC2A4B1B58162BFC
:10CCC800A7D1DBF800302A4ACCE7631C01D1294AF6
:10CCD800A9E75FFA86F8C6F3C406002C3CD06B4679
:10CCE80029461A46A6EB050C0CE0B8F1100F1DD02A
:10CCF800B8F1200F20D0B8F1080F2AD108781870A1
:10CD080031443344A64203D80CEB01001028ECD977
:10CD1800102CA14628BF4FF0100929464B4638462B
:10CD280001F060F81035A4EB0904D6E7088880B252
:10CD38001870000A5870E3E708684FEA102E187058
:10CD480083F801E04FEA104E000E83F802E0D87035
:10CD5800D6E70821084A67E7204689E714C6002075
:10CD680042720400140000000172040014720400EE
:10CD7800277204005F720400C67104003B7204004D
:10CD880028EF002070B5104E04460D46337881B167
:10CD98002BB10121BDE870400C4A1CF00DBD0123E8
:10CDA8003370082120460A4A1CF006FD012333701F
:10CDB80004E083F001033370002BF2D129462046AA
:10CDC800BDE870401CF068BD8796012079720400A8
:10CDD800B472040070B504463C480378182B02D19D
:10CDE8000B78112B31D00B46013A8D18AB4225D167
:10CDF8008B5C0A780370A2F13003092B344C04D9F8
:10CE080022F02003413B052B04D823683149CA543A
:10CE1800013323602368022B34D1102200212D48CE
:10CE280018F076FF2C4A136803F8010B13602B4A9D
:10CE38001368013313600023236023E013F8016BA8
:10CE4800182ED3D11E78112ED0D1244D08212B684D
:10CE58002046234A1CF0B0FC20460021FFF792FF31
:10CE6800204B187870B9204A2B681168042B0ADC0B
:10CE780008B111602B6013F003010BD1126813681D
:10CE88001BBA136070BD0868043B00BA41F8040B74
:10CE98000120EBE75B4203F0030358BF5942022924
:10CEA80004D1126813885BBA9BB2EAE70329E9D177
:10CEB800106802681104C2F3074301F47F010B43B1
:10CEC80002F47F4213430360DCE700BF8896012029
:10CED800BCEF00208A960120C8EF0020C0EF002098
:10CEE800DE72040089960120C4EF00202DE9F84F76
:10CEF8000023064615460C462949DFF8BC800B601E
:10CF08002849DFF8B890DFF8B8B088F800300B602F
:10CF1800012C2F4655F804AF1ED902224946504627
:10CF280025F0F7FE80B99AF80220003A18BF0122CE
:10CF38009244504602221C4925F0EBFE30B90123E9
:10CF480088F80030013CE3E70022F1E74946504603
:10CF5800FBF7CCFEA8B9043700227868114618F010
:10CF6800D1FD0022114B11461860786818F0CAFDEF
:10CF78000F4B104918603046FFF704FF0020BDE84A
:10CF8800F88F9AF800202D2AE6D19AF80120002A75
:10CF9800E2D053465A46082130461CF00DFCD1E732
:10CFA800BCEF0020C0EF0020FB720400C8EF002097
:10CFB800C4EF0020DDCD010089960120F87204003D
:10CFC800FE72040007B50A4825F02BF860B1042367
:10CFD800084A0093126801230549074800F074FFC6
:10CFE800002003B05DF804FB6FF01200F9E700BF02
:10CFF8009C360400BC420400F43A040010B54468AE
:10D00800A3604023C4E9001242680821D36402F1F6
:10D01800580313630023C2E90E33C2E91133C2E98E
:10D028000633C2E90933D162146802F1500153632F
:10D038001364116153611362C2F8D030A36823B13D
:10D048001B6C13B1204604499847A3681B6A0BB1AF
:10D0580020469847002010BD65D001002DE9F74310
:10D0680004460D468368DB6B03B19847A368DB6A07
:10D078000BBB4FF0000905F130084046EA6C01A9E6
:10D088001BF075FB0746002836D0A36801991B6979
:10D098003BB3024620469847064628B331464046E9
:10D0A8001BF082FBB7424FF00109E6D00020D5E91A
:10D0B8000131984703E0204698470028D9D1A36852
:10D0C800DB6963BB05F110073846EA6A01A91BF062
:10D0D8009FFB064650BB20461CF02FFAC5F8D060CF
:10D0E8002FE06FF05706D9E7014640461BF05CFB7E
:10D0F800B9F1000FE3D0D9E71648036813F0060F1B
:10D1080003D00221144A1CF01DF8A3681B69002BE8
:10D11800EED0012220460DF103019847E8E72046AA
:10D1280098470028CED103B0BDE8F083A3680199E1
:10D13800DB685BB1024620469847014638461BF03B
:10D1480083FBD5E9013101209847ECE76FF05701DF
:10D15800F4E700BF60CD00205A74040010B50446FF
:10D168008168183101F0A6F9A1682046BDE8104091
:10D17800014A183101F044B99C74040038B5836839
:10D188000446D3F87832DB071DD4C0691DF098F83F
:10D19800606803685B689847054620B9E0681DF039
:10D1A8003CFAA3681D75A3685B6C13B12946204639
:10D1B8009847002226F0C4F9A368C3F82023034B3C
:10D1C800185802F041F86FF00F05ECE71000000066
:10D1D80001491CF04ABA00BF266E0400F7B50446A0
:10D1E80080680D46D0F878325A0705D500211CF022
:10D1F8005EFAE0681DF0E3F9E368DB6873B9002DB7
:10D208003BD0A66806F1560738461CF028FA0028D5
:10D2180035D0394606F5AB70FBF772FDA268294692
:10D22800E0680DF1060356321DF0CCF958B9A06834
:10D2380000F5AB715630FBF763FDA06856301CF063
:10D248000EFAADF8060020461CF017FEA368D3F8C6
:10D2580074329B0603D50B4960691CF006FA204618
:10D2680000F05CFFA268BDF806302046A2F85230F4
:10D27800A268A2F850301CF065FD03B0F0BD86F836
:10D288005601CBE7383C04002DE9F04FA7B004461F
:10D298005422002111A826F03FF80023CDE90533D8
:10D2A800A3682046563302931CF0EEFD20461CF07E
:10D2B80032FD10B96069FFF78BFF00264FF0FF378A
:10D2C800B246B3463546B146A0681422002118304C
:10D2D80026F022F820461CF0C5FCA168E068B1F8E9
:10D2E800502056311DF0A5F920461DF024FA0DF105
:10D2F80044080396DDE90532012A6DD0132B6ED858
:10D308005FBBBBF1000F0AD020461DF035FA14238D
:10D31800A26811A956320DEB03001CF023FBB9F1EA
:10D32800000F0CD099F81130FE2B08D1059B26AAC6
:10D3380002EB830252F8542C0AB101330593A0681A
:10D34800059D436A002B40F0B680CEB1C3699E426A
:10D358002DD00D9600F1180524E002234146029ACB
:10D3680006A81CF0FFFAD8F8042006990346029292
:10D3780031B101290AD148B16D4A20461CF032FE6C
:10D388006FF00705284627B0BDE8F08F059B002BF6
:10D3980034D0D8F8000001F0ADF898B166B1A568AE
:10D3A8000D9618350CAE0FCE0FC533682B6020468E
:10D3B800FFF7D4FE0125E5E75E4A012120461CF06F
:10D3C80011FEDDE7059BCBB129462046D8F80020A1
:10D3D80001F040FA022809D1059B132B91D9069B2D
:10D3E800022B8ED10121544B544AC6E7032805D09D
:10D3F800059B4FF0010B013305937BE7039B33B982
:10D408004846D8F8001007AA1CF0A3FB054608F107
:10D418000408013F9DB3EB68BBF1000F08D0F3B1DE
:10D4280020461CF031FD20461CF08CFC444AC4E721
:10D43800ABB1AE46A368DDF814A003F1180CBEE842
:10D448000F00ACE80F00DEF80030CCF80030AB6815
:10D458002BB96B7CFE2B04BF2F7C07F1FF37D5F867
:10D4680004C0BCF1000F08D0AE460CAEBEE80F00F9
:10D478000FC6DEF8003033606646A94603E0059B18
:10D4880053B101230393069B17B9022B7FF432AFE4
:10D49800059B013305932DE7A368DB6A13B1DB68AD
:10D4A800002BEED1274B012100932046119B264AE1
:10D4B8001CF098FDE5E790F82830A5EB0A05BBB10C
:10D4C8004FF6FF7290F82910FF2918BF0A469D42AF
:10D4D80002D313449D420BD98369012120461B4A7C
:10D4E8001CF080FD2046FFF739FE6FF0150549E76F
:10D4F80001211CF0D1F8A06800F543701CF0F0F889
:10D50800A36811AA294602EB8A0220465B6A98475B
:10D518000546A0684FF0FF324FF0FF3300F5437027
:10D528001CF085F80021A0681CF0B6F82AE700BFB7
:10D53800AA740400BE7404001F750400E06E0400A1
:10D54800DC7404000B750400FA77040043750400CA
:10D55800022210B5836804461A7583689B6CBBB9B0
:10D568001CF044F88368D3F87832DB040BD5032128
:10D57800084B094A1CF036FDA0686FF4805100F58D
:10D588001E701CF049F82046BDE8104000F01ABF94
:10D5980010BD00BF5E750400AB7004002DE9F04FAC
:10D5A800044680680121B1B000F51E701CF029F80E
:10D5B800A3681B7D022B20D100230993A368606810
:10D5C8009E6C03681D6909AB0EB310221BA9A847FE
:10D5D800099B93B10121A0681CF05EF82046099AC6
:10D5E8001BA9B0470021A0681CF056F8A3689B6CE3
:10D5F800002BE3D12046FFF7ABFF6FF00101A068D5
:10D6080000F51E7031B0BDE8F04F1CF005B80122DE
:10D618000DF12301A847099B002BEED09DF923208B
:10D628009DF82310002AA368C8DB5A7D032A00F25C
:10D638009582DFE812F004008202990293020D2914
:10D648007CD00A2958D0B3F8782209296FF3CA0286
:10D65800A3F87822A06800F086803DD80029ADD0D4
:10D66800082900F0F9810346D3F874229207A5D55A
:10D6780001391629A2D801A252F821F011DC0100C3
:10D688009BDA0100A3DA010093DA010005DC01004E
:10D69800C1DA0100C5D50100C5D50100C5D5010015
:10D6A800C5D50100C9DA0100D1DA0100C5D50100EC
:10D6B800FBDA0100C5D5010005DB0100C5D5010075
:10D6C800C5D50100C5D50100C5D5010009DB01009C
:10D6D800C5D5010033DB01001B2941D07F2900F0AB
:10D6E800C781A1F120025E2A0346BDD801211BF0A3
:10D6F800DEFF9DF82310B7E0D3F87822C2F3C70203
:10D708002AB1D3F87822C2F3C7020A2AACD1B3F8F7
:10D71800782261F3CA02A3F87822A568B5F85010F8
:10D72800C1B928461BF0C3FFE0681CF048FF6069D8
:10D73800FFF74EFD2046FFF70BFF3FE7D3F87822AF
:10D74800C2F3C702002AE2D0D3F87822C2F3C70294
:10D758000D2ADBE72046FFF797FDC5F82403E9E724
:10D76800012343752AE7D0F874329B077FF526AF6B
:10D7780001211BF09CFFA068B0F85030FF2B3FF44C
:10D788001DAF0025B0F8522000F1560100F5AB702E
:10D7980025F09BFDA3681BA9B3F852200BA81344DE
:10D7A80083F85651A268142302F5AB721CF0DAF81C
:10D7B8000B9914293FF602AF30AB03EB810343F812
:10D7C800545CA368B3F85220134493F85530202BC7
:10D7D80002D0093B042B4BD800294CD100250A95CF
:10D7E8000A9B30AA02EB830353F854AC0026504638
:10D7F8001BF035FFB3468146B046374639462846C2
:10D8080016AA00F0E9FB0346002840D1012EA768BC
:10D8180065D10A9B30AA02EB830353F8540C1BF022
:10D828001EFF4146064607F11802284600F0D4FBC1
:10D83800056828461BF013FF864205D0821B92B26A
:10D848002046A9191CF015FCA068B0F85230034412
:10D8580093F85630202B31D0093B042B2ED9D0F821
:10D868007432DF072FD42021204600F073FDA5E68F
:10D878000129B3D9013900200CAB009301900AAB00
:10D888001BAA1CF091F905460028A9D196E61B6849
:10D898004A4651461846039325F03BFA60B9039B64
:10D8A8001846FBF735FA584538BF5846002E08BFCA
:10D8B800B8461FFA80FB013601379FE70121204651
:10D8C8001CF074FA7AE600211BF0FBFE20212046AA
:10D8D80000F040FD0121A0681BF0F3FE6EE6049005
:10D8E8007FF66CAE0A9A30AB03EB820252F8543CD6
:10D8F800C146184603931BF0B2FE049B0590A7F897
:10D9080040300496A26849462846183200F064FB65
:10D91800039BD0F800A009F101094BB1BAF1000F3F
:10D9280006D019465046059A25F0F3F90028E9D1A2
:10D93800A168BAF1000F4DD1A1F840A0049B013BAA
:10D948000493DFD16069FFF743FC204600F03AFDFD
:10D958000A9B30AA02EB830353F8540C1BF07FFE9A
:10D96800414611AA8146284600F036FB0746A068C2
:10D978003968FF2200F5AB7025F0DDF93B684FF6FA
:10D98800FF7708F1010AB84603935146284616AABC
:10D998000AF1010B00F020FB002851D00022A168F9
:10D9A800036801F2551111F801EF985C704503D135
:10D9B80010B101324245F6D1B9F1000F01D04A4504
:10D9C80006DBBA42A8BF3A46013E012E97B237D0CD
:10D9D800DA46DAE7984806911BF041FE069900EB13
:10D9E8000B074A8FBFB2121A92FBF7F2504692B257
:10D9F800079106921BF033FE07993F1AB1F84000D1
:10DA0800069A00F1010CA1F840C0B0FBF2F102FB4C
:10DA1800110080B2BFB260B906212046864B874A02
:10DA2800CDF800A01CF0DEFA3946204600F060FB75
:10DA380084E7534606212046814A1CF0D3FAF3E7CF
:10DA4800002F3FF4BBAD0399A7EB0902204692B221
:10DA580049441CF00EFBB1E5D0F874329E077FF5FF
:10DA6800ADAD01211BF023FE20461CF023FBA5E5EC
:10DA7800D0F874329D077FF5A1AD01211BF017FE88
:10DA8800A368D3F874321907EED420461CF0F3FAD1
:10DA980094E520461CF001FA90E520461CF0F4F9C4
:10DAA80020461CF038F910B96069FFF791FB012195
:10DAB800A0681BF0FCFD3DE620461CF0F7F97DE56B
:10DAC80020461CF0FEF979E5D3F874329B0603D59D
